{"abi":[{"type":"constructor","inputs":[{"name":"name","type":"string","internalType":"string"},{"name":"symbol","type":"string","internalType":"string"},{"name":"initialOwner","type":"address","internalType":"address"}],"stateMutability":"nonpayable"},{"type":"function","name":"addToBlacklist","inputs":[{"name":"_addr","type":"address","internalType":"address"}],"outputs":[],"stateMutability":"nonpayable"},{"type":"function","name":"allowance","inputs":[{"name":"owner","type":"address","internalType":"address"},{"name":"spender","type":"address","internalType":"address"}],"outputs":[{"name":"","type":"uint256","internalType":"uint256"}],"stateMutability":"view"},{"type":"function","name":"approve","inputs":[{"name":"spender","type":"address","internalType":"address"},{"name":"value","type":"uint256","internalType":"uint256"}],"outputs":[{"name":"","type":"bool","internalType":"bool"}],"stateMutability":"nonpayable"},{"type":"function","name":"balanceOf","inputs":[{"name":"account","type":"address","internalType":"address"}],"outputs":[{"name":"","type":"uint256","internalType":"uint256"}],"stateMutability":"view"},{"type":"function","name":"decimals","inputs":[],"outputs":[{"name":"","type":"uint8","internalType":"uint8"}],"stateMutability":"view"},{"type":"function","name":"isBlacklisted","inputs":[{"name":"_addr","type":"address","internalType":"address"}],"outputs":[{"name":"","type":"bool","internalType":"bool"}],"stateMutability":"view"},{"type":"function","name":"mint","inputs":[{"name":"to","type":"address","internalType":"address"},{"name":"amount","type":"uint256","internalType":"uint256"}],"outputs":[],"stateMutability":"nonpayable"},{"type":"function","name":"name","inputs":[],"outputs":[{"name":"","type":"string","internalType":"string"}],"stateMutability":"view"},{"type":"function","name":"owner","inputs":[],"outputs":[{"name":"","type":"address","internalType":"address"}],"stateMutability":"view"},{"type":"function","name":"removeFromBlacklist","inputs":[{"name":"_addr","type":"address","internalType":"address"}],"outputs":[],"stateMutability":"nonpayable"},{"type":"function","name":"renounceOwnership","inputs":[],"outputs":[],"stateMutability":"nonpayable"},{"type":"function","name":"symbol","inputs":[],"outputs":[{"name":"","type":"string","internalType":"string"}],"stateMutability":"view"},{"type":"function","name":"totalSupply","inputs":[],"outputs":[{"name":"","type":"uint256","internalType":"uint256"}],"stateMutability":"view"},{"type":"function","name":"transfer","inputs":[{"name":"recipient","type":"address","internalType":"address"},{"name":"amount","type":"uint256","internalType":"uint256"}],"outputs":[{"name":"","type":"bool","internalType":"bool"}],"stateMutability":"nonpayable"},{"type":"function","name":"transferFrom","inputs":[{"name":"sender","type":"address","internalType":"address"},{"name":"recipient","type":"address","internalType":"address"},{"name":"amount","type":"uint256","internalType":"uint256"}],"outputs":[{"name":"","type":"bool","internalType":"bool"}],"stateMutability":"nonpayable"},{"type":"function","name":"transferOwnership","inputs":[{"name":"newOwner","type":"address","internalType":"address"}],"outputs":[],"stateMutability":"nonpayable"},{"type":"event","name":"Approval","inputs":[{"name":"owner","type":"address","indexed":true,"internalType":"address"},{"name":"spender","type":"address","indexed":true,"internalType":"address"},{"name":"value","type":"uint256","indexed":false,"internalType":"uint256"}],"anonymous":false},{"type":"event","name":"BlacklistUpdated","inputs":[{"name":"_addr","type":"address","indexed":true,"internalType":"address"},{"name":"_isBlacklisted","type":"bool","indexed":false,"internalType":"bool"}],"anonymous":false},{"type":"event","name":"OwnershipTransferred","inputs":[{"name":"previousOwner","type":"address","indexed":true,"internalType":"address"},{"name":"newOwner","type":"address","indexed":true,"internalType":"address"}],"anonymous":false},{"type":"event","name":"Transfer","inputs":[{"name":"from","type":"address","indexed":true,"internalType":"address"},{"name":"to","type":"address","indexed":true,"internalType":"address"},{"name":"value","type":"uint256","indexed":false,"internalType":"uint256"}],"anonymous":false},{"type":"error","name":"ERC20InsufficientAllowance","inputs":[{"name":"spender","type":"address","internalType":"address"},{"name":"allowance","type":"uint256","internalType":"uint256"},{"name":"needed","type":"uint256","internalType":"uint256"}]},{"type":"error","name":"ERC20InsufficientBalance","inputs":[{"name":"sender","type":"address","internalType":"address"},{"name":"balance","type":"uint256","internalType":"uint256"},{"name":"needed","type":"uint256","internalType":"uint256"}]},{"type":"error","name":"ERC20InvalidApprover","inputs":[{"name":"approver","type":"address","internalType":"address"}]},{"type":"error","name":"ERC20InvalidReceiver","inputs":[{"name":"receiver","type":"address","internalType":"address"}]},{"type":"error","name":"ERC20InvalidSender","inputs":[{"name":"sender","type":"address","internalType":"address"}]},{"type":"error","name":"ERC20InvalidSpender","inputs":[{"name":"spender","type":"address","internalType":"address"}]},{"type":"error","name":"OwnableInvalidOwner","inputs":[{"name":"owner","type":"address","internalType":"address"}]},{"type":"error","name":"OwnableUnauthorizedAccount","inputs":[{"name":"account","type":"address","internalType":"address"}]}],"bytecode":{"object":"0x608060405234801561001057600080fd5b50604051610e9a380380610e9a83398101604081905261002f9161019e565b808383600361003e83826102ae565b50600461004b82826102ae565b5050506001600160a01b03811661007c57604051631e4fbdf760e01b81526000600482015260240160405180910390fd5b6100858161008e565b5050505061036d565b600580546001600160a01b038381166001600160a01b0319831681179093556040519116919082907f8be0079c531659141344cd1fd0a4f28419497f9722a3daafe3b4186f6b6457e090600090a35050565b634e487b7160e01b600052604160045260246000fd5b600082601f83011261010757600080fd5b81516001600160401b0380821115610121576101216100e0565b604051601f8301601f19908116603f01168101908282118183101715610149576101496100e0565b816040528381526020925086602085880101111561016657600080fd5b600091505b83821015610188578582018301518183018401529082019061016b565b6000602085830101528094505050505092915050565b6000806000606084860312156101b357600080fd5b83516001600160401b03808211156101ca57600080fd5b6101d6878388016100f6565b945060208601519150808211156101ec57600080fd5b506101f9868287016100f6565b604086015190935090506001600160a01b038116811461021857600080fd5b809150509250925092565b600181811c9082168061023757607f821691505b60208210810361025757634e487b7160e01b600052602260045260246000fd5b50919050565b601f8211156102a9576000816000526020600020601f850160051c810160208610156102865750805b601f850160051c820191505b818110156102a557828155600101610292565b5050505b505050565b81516001600160401b038111156102c7576102c76100e0565b6102db816102d58454610223565b8461025d565b602080601f83116001811461031057600084156102f85750858301515b600019600386901b1c1916600185901b1785556102a5565b600085815260208120601f198616915b8281101561033f57888601518255948401946001909101908401610320565b508582101561035d5787850151600019600388901b60f8161c191681555b5050505050600190811b01905550565b610b1e8061037c6000396000f3fe608060405234801561001057600080fd5b50600436106101005760003560e01c806370a0823111610097578063a9059cbb11610066578063a9059cbb14610209578063dd62ed3e1461021c578063f2fde38b14610255578063fe575a871461026857600080fd5b806370a08231146101b5578063715018a6146101de5780638da5cb5b146101e657806395d89b411461020157600080fd5b8063313ce567116100d3578063313ce5671461016b57806340c10f191461017a57806344337ea11461018f578063537df3b6146101a257600080fd5b806306fdde0314610105578063095ea7b31461012357806318160ddd1461014657806323b872dd14610158575b600080fd5b61010d610294565b60405161011a919061096e565b60405180910390f35b6101366101313660046109d9565b610326565b604051901515815260200161011a565b6002545b60405190815260200161011a565b610136610166366004610a03565b610340565b6040516012815260200161011a565b61018d6101883660046109d9565b6103df565b005b61018d61019d366004610a3f565b6103f5565b61018d6101b0366004610a3f565b61045b565b61014a6101c3366004610a3f565b6001600160a01b031660009081526020819052604090205490565b61018d6104b2565b6005546040516001600160a01b03909116815260200161011a565b61010d6104c6565b6101366102173660046109d9565b6104d5565b61014a61022a366004610a5a565b6001600160a01b03918216600090815260016020908152604080832093909416825291909152205490565b61018d610263366004610a3f565b610564565b610136610276366004610a3f565b6001600160a01b031660009081526006602052604090205460ff1690565b6060600380546102a390610a8d565b80601f01602080910402602001604051908101604052809291908181526020018280546102cf90610a8d565b801561031c5780601f106102f15761010080835404028352916020019161031c565b820191906000526020600020905b8154815290600101906020018083116102ff57829003601f168201915b5050505050905090565b6000336103348185856105a2565b60019150505b92915050565b6001600160a01b03831660009081526006602052604081205460ff1615801561038257506001600160a01b03831660009081526006602052604090205460ff16155b6103cc5760405162461bcd60e51b81526020600482015260166024820152751059191c995cdcc81a5cc8189b1858dadb1a5cdd195960521b60448201526064015b60405180910390fd5b6103d78484846105b4565b949350505050565b6103e76105d8565b6103f18282610605565b5050565b6103fd6105d8565b6001600160a01b038116600081815260066020908152604091829020805460ff1916600190811790915591519182527f6a12b3df6cba4203bd7fd06b816789f87de8c594299aed5717ae070fac781bac91015b60405180910390a250565b6104636105d8565b6001600160a01b0381166000818152600660209081526040808320805460ff19169055519182527f6a12b3df6cba4203bd7fd06b816789f87de8c594299aed5717ae070fac781bac9101610450565b6104ba6105d8565b6104c4600061063b565b565b6060600480546102a390610a8d565b3360009081526006602052604081205460ff1615801561050e57506001600160a01b03831660009081526006602052604090205460ff16155b6105535760405162461bcd60e51b81526020600482015260166024820152751059191c995cdcc81a5cc8189b1858dadb1a5cdd195960521b60448201526064016103c3565b61055d838361068d565b9392505050565b61056c6105d8565b6001600160a01b03811661059657604051631e4fbdf760e01b8152600060048201526024016103c3565b61059f8161063b565b50565b6105af838383600161069b565b505050565b6000336105c2858285610771565b6105cd8585856107e9565b506001949350505050565b6005546001600160a01b031633146104c45760405163118cdaa760e01b81523360048201526024016103c3565b6001600160a01b03821661062f5760405163ec442f0560e01b8152600060048201526024016103c3565b6103f160008383610844565b600580546001600160a01b038381166001600160a01b0319831681179093556040519116919082907f8be0079c531659141344cd1fd0a4f28419497f9722a3daafe3b4186f6b6457e090600090a35050565b6000336103348185856107e9565b6001600160a01b0384166106c55760405163e602df0560e01b8152600060048201526024016103c3565b6001600160a01b0383166106ef57604051634a1406b160e11b8152600060048201526024016103c3565b6001600160a01b038085166000908152600160209081526040808320938716835292905220829055801561076b57826001600160a01b0316846001600160a01b03167f8c5be1e5ebec7d5bd14f71427d1e84f3dd0314c0f7b2291e5b200ac8c7c3b9258460405161076291815260200190565b60405180910390a35b50505050565b6001600160a01b03838116600090815260016020908152604080832093861683529290522054600019811461076b57818110156107da57604051637dc7a0d960e11b81526001600160a01b038416600482015260248101829052604481018390526064016103c3565b61076b8484848403600061069b565b6001600160a01b03831661081357604051634b637e8f60e11b8152600060048201526024016103c3565b6001600160a01b03821661083d5760405163ec442f0560e01b8152600060048201526024016103c3565b6105af8383835b6001600160a01b03831661086f5780600260008282546108649190610ac7565b909155506108e19050565b6001600160a01b038316600090815260208190526040902054818110156108c25760405163391434e360e21b81526001600160a01b038516600482015260248101829052604481018390526064016103c3565b6001600160a01b03841660009081526020819052604090209082900390555b6001600160a01b0382166108fd5760028054829003905561091c565b6001600160a01b03821660009081526020819052604090208054820190555b816001600160a01b0316836001600160a01b03167fddf252ad1be2c89b69c2b068fc378daa952ba7f163c4a11628f55a4df523b3ef8360405161096191815260200190565b60405180910390a3505050565b60006020808352835180602085015260005b8181101561099c57858101830151858201604001528201610980565b506000604082860101526040601f19601f8301168501019250505092915050565b80356001600160a01b03811681146109d457600080fd5b919050565b600080604083850312156109ec57600080fd5b6109f5836109bd565b946020939093013593505050565b600080600060608486031215610a1857600080fd5b610a21846109bd565b9250610a2f602085016109bd565b9150604084013590509250925092565b600060208284031215610a5157600080fd5b61055d826109bd565b60008060408385031215610a6d57600080fd5b610a76836109bd565b9150610a84602084016109bd565b90509250929050565b600181811c90821680610aa157607f821691505b602082108103610ac157634e487b7160e01b600052602260045260246000fd5b50919050565b8082018082111561033a57634e487b7160e01b600052601160045260246000fdfea2646970667358221220e94a3f360f29726c0d65fe624957fa376453ef8c638eb53ee8896a76b70b419b64736f6c63430008190033","linkReferences":{}},"methodIdentifiers":{"addToBlacklist(address)":"44337ea1","allowance(address,address)":"dd62ed3e","approve(address,uint256)":"095ea7b3","balanceOf(address)":"70a08231","decimals()":"313ce567","isBlacklisted(address)":"fe575a87","mint(address,uint256)":"40c10f19","name()":"06fdde03","owner()":"8da5cb5b","removeFromBlacklist(address)":"537df3b6","renounceOwnership()":"715018a6","symbol()":"95d89b41","totalSupply()":"18160ddd","transfer(address,uint256)":"a9059cbb","transferFrom(address,address,uint256)":"23b872dd","transferOwnership(address)":"f2fde38b"},"id":0}