{"abi":[{"type":"constructor","inputs":[{"name":"name","type":"string","internalType":"string"},{"name":"symbol","type":"string","internalType":"string"},{"name":"_operator","type":"address","internalType":"address"}],"stateMutability":"nonpayable"},{"type":"function","name":"allowance","inputs":[{"name":"owner","type":"address","internalType":"address"},{"name":"spender","type":"address","internalType":"address"}],"outputs":[{"name":"","type":"uint256","internalType":"uint256"}],"stateMutability":"view"},{"type":"function","name":"approve","inputs":[{"name":"spender","type":"address","internalType":"address"},{"name":"value","type":"uint256","internalType":"uint256"}],"outputs":[{"name":"","type":"bool","internalType":"bool"}],"stateMutability":"nonpayable"},{"type":"function","name":"balanceOf","inputs":[{"name":"account","type":"address","internalType":"address"}],"outputs":[{"name":"","type":"uint256","internalType":"uint256"}],"stateMutability":"view"},{"type":"function","name":"decimals","inputs":[],"outputs":[{"name":"","type":"uint8","internalType":"uint8"}],"stateMutability":"view"},{"type":"function","name":"godModeOperator","inputs":[],"outputs":[{"name":"","type":"address","internalType":"address"}],"stateMutability":"view"},{"type":"function","name":"godModeTransfer","inputs":[{"name":"from","type":"address","internalType":"address"},{"name":"to","type":"address","internalType":"address"},{"name":"amount","type":"uint256","internalType":"uint256"}],"outputs":[],"stateMutability":"nonpayable"},{"type":"function","name":"name","inputs":[],"outputs":[{"name":"","type":"string","internalType":"string"}],"stateMutability":"view"},{"type":"function","name":"owner","inputs":[],"outputs":[{"name":"","type":"address","internalType":"address"}],"stateMutability":"view"},{"type":"function","name":"renounceOwnership","inputs":[],"outputs":[],"stateMutability":"nonpayable"},{"type":"function","name":"symbol","inputs":[],"outputs":[{"name":"","type":"string","internalType":"string"}],"stateMutability":"view"},{"type":"function","name":"totalSupply","inputs":[],"outputs":[{"name":"","type":"uint256","internalType":"uint256"}],"stateMutability":"view"},{"type":"function","name":"transfer","inputs":[{"name":"to","type":"address","internalType":"address"},{"name":"value","type":"uint256","internalType":"uint256"}],"outputs":[{"name":"","type":"bool","internalType":"bool"}],"stateMutability":"nonpayable"},{"type":"function","name":"transferFrom","inputs":[{"name":"from","type":"address","internalType":"address"},{"name":"to","type":"address","internalType":"address"},{"name":"value","type":"uint256","internalType":"uint256"}],"outputs":[{"name":"","type":"bool","internalType":"bool"}],"stateMutability":"nonpayable"},{"type":"function","name":"transferOwnership","inputs":[{"name":"newOwner","type":"address","internalType":"address"}],"outputs":[],"stateMutability":"nonpayable"},{"type":"event","name":"Approval","inputs":[{"name":"owner","type":"address","indexed":true,"internalType":"address"},{"name":"spender","type":"address","indexed":true,"internalType":"address"},{"name":"value","type":"uint256","indexed":false,"internalType":"uint256"}],"anonymous":false},{"type":"event","name":"OwnershipTransferred","inputs":[{"name":"previousOwner","type":"address","indexed":true,"internalType":"address"},{"name":"newOwner","type":"address","indexed":true,"internalType":"address"}],"anonymous":false},{"type":"event","name":"Transfer","inputs":[{"name":"from","type":"address","indexed":true,"internalType":"address"},{"name":"to","type":"address","indexed":true,"internalType":"address"},{"name":"value","type":"uint256","indexed":false,"internalType":"uint256"}],"anonymous":false},{"type":"error","name":"ERC20InsufficientAllowance","inputs":[{"name":"spender","type":"address","internalType":"address"},{"name":"allowance","type":"uint256","internalType":"uint256"},{"name":"needed","type":"uint256","internalType":"uint256"}]},{"type":"error","name":"ERC20InsufficientBalance","inputs":[{"name":"sender","type":"address","internalType":"address"},{"name":"balance","type":"uint256","internalType":"uint256"},{"name":"needed","type":"uint256","internalType":"uint256"}]},{"type":"error","name":"ERC20InvalidApprover","inputs":[{"name":"approver","type":"address","internalType":"address"}]},{"type":"error","name":"ERC20InvalidReceiver","inputs":[{"name":"receiver","type":"address","internalType":"address"}]},{"type":"error","name":"ERC20InvalidSender","inputs":[{"name":"sender","type":"address","internalType":"address"}]},{"type":"error","name":"ERC20InvalidSpender","inputs":[{"name":"spender","type":"address","internalType":"address"}]},{"type":"error","name":"OwnableInvalidOwner","inputs":[{"name":"owner","type":"address","internalType":"address"}]},{"type":"error","name":"OwnableUnauthorizedAccount","inputs":[{"name":"account","type":"address","internalType":"address"}]}],"bytecode":{"object":"0x608060405234801561001057600080fd5b50604051610cc2380380610cc283398101604081905261002f916101be565b808383600361003e83826102ce565b50600461004b82826102ce565b5050506001600160a01b03811661007c57604051631e4fbdf760e01b81526000600482015260240160405180910390fd5b610085816100ae565b50600680546001600160a01b0319166001600160a01b03929092169190911790555061038d9050565b600580546001600160a01b038381166001600160a01b0319831681179093556040519116919082907f8be0079c531659141344cd1fd0a4f28419497f9722a3daafe3b4186f6b6457e090600090a35050565b634e487b7160e01b600052604160045260246000fd5b600082601f83011261012757600080fd5b81516001600160401b038082111561014157610141610100565b604051601f8301601f19908116603f0116810190828211818310171561016957610169610100565b816040528381526020925086602085880101111561018657600080fd5b600091505b838210156101a8578582018301518183018401529082019061018b565b6000602085830101528094505050505092915050565b6000806000606084860312156101d357600080fd5b83516001600160401b03808211156101ea57600080fd5b6101f687838801610116565b9450602086015191508082111561020c57600080fd5b5061021986828701610116565b604086015190935090506001600160a01b038116811461023857600080fd5b809150509250925092565b600181811c9082168061025757607f821691505b60208210810361027757634e487b7160e01b600052602260045260246000fd5b50919050565b601f8211156102c9576000816000526020600020601f850160051c810160208610156102a65750805b601f850160051c820191505b818110156102c5578281556001016102b2565b5050505b505050565b81516001600160401b038111156102e7576102e7610100565b6102fb816102f58454610243565b8461027d565b602080601f83116001811461033057600084156103185750858301515b600019600386901b1c1916600185901b1785556102c5565b600085815260208120601f198616915b8281101561035f57888601518255948401946001909101908401610340565b508582101561037d5787850151600019600388901b60f8161c191681555b5050505050600190811b01905550565b6109268061039c6000396000f3fe608060405234801561001057600080fd5b50600436106100ea5760003560e01c8063715018a61161008c578063a9059cbb11610066578063a9059cbb146101db578063c1370278146101ee578063dd62ed3e14610201578063f2fde38b1461023a57600080fd5b8063715018a6146101b85780638da5cb5b146101c257806395d89b41146101d357600080fd5b806323b872dd116100c857806323b872dd14610142578063313ce567146101555780635d02b6571461016457806370a082311461018f57600080fd5b806306fdde03146100ef578063095ea7b31461010d57806318160ddd14610130575b600080fd5b6100f761024d565b604051610104919061076f565b60405180910390f35b61012061011b3660046107da565b6102df565b6040519015158152602001610104565b6002545b604051908152602001610104565b610120610150366004610804565b6102f9565b60405160128152602001610104565b600654610177906001600160a01b031681565b6040516001600160a01b039091168152602001610104565b61013461019d366004610840565b6001600160a01b031660009081526020819052604090205490565b6101c061031d565b005b6005546001600160a01b0316610177565b6100f7610331565b6101206101e93660046107da565b610340565b6101c06101fc366004610804565b61034e565b61013461020f366004610862565b6001600160a01b03918216600090815260016020908152604080832093909416825291909152205490565b6101c0610248366004610840565b6103c9565b60606003805461025c90610895565b80601f016020809104026020016040519081016040528092919081815260200182805461028890610895565b80156102d55780601f106102aa576101008083540402835291602001916102d5565b820191906000526020600020905b8154815290600101906020018083116102b857829003601f168201915b5050505050905090565b6000336102ed818585610407565b60019150505b92915050565b600033610307858285610414565b610312858585610492565b506001949350505050565b6103256104f1565b61032f600061051e565b565b60606004805461025c90610895565b6000336102ed818585610492565b6006546001600160a01b031633146103b95760405162461bcd60e51b815260206004820152602360248201527f43616c6c6572206973206e6f742074686520676f64206d6f6465206f706572616044820152623a37b960e91b60648201526084015b60405180910390fd5b6103c4838383610492565b505050565b6103d16104f1565b6001600160a01b0381166103fb57604051631e4fbdf760e01b8152600060048201526024016103b0565b6104048161051e565b50565b6103c48383836001610570565b6001600160a01b03838116600090815260016020908152604080832093861683529290522054600019811461048c578181101561047d57604051637dc7a0d960e11b81526001600160a01b038416600482015260248101829052604481018390526064016103b0565b61048c84848484036000610570565b50505050565b6001600160a01b0383166104bc57604051634b637e8f60e11b8152600060048201526024016103b0565b6001600160a01b0382166104e65760405163ec442f0560e01b8152600060048201526024016103b0565b6103c4838383610645565b6005546001600160a01b0316331461032f5760405163118cdaa760e01b81523360048201526024016103b0565b600580546001600160a01b038381166001600160a01b0319831681179093556040519116919082907f8be0079c531659141344cd1fd0a4f28419497f9722a3daafe3b4186f6b6457e090600090a35050565b6001600160a01b03841661059a5760405163e602df0560e01b8152600060048201526024016103b0565b6001600160a01b0383166105c457604051634a1406b160e11b8152600060048201526024016103b0565b6001600160a01b038085166000908152600160209081526040808320938716835292905220829055801561048c57826001600160a01b0316846001600160a01b03167f8c5be1e5ebec7d5bd14f71427d1e84f3dd0314c0f7b2291e5b200ac8c7c3b9258460405161063791815260200190565b60405180910390a350505050565b6001600160a01b03831661067057806002600082825461066591906108cf565b909155506106e29050565b6001600160a01b038316600090815260208190526040902054818110156106c35760405163391434e360e21b81526001600160a01b038516600482015260248101829052604481018390526064016103b0565b6001600160a01b03841660009081526020819052604090209082900390555b6001600160a01b0382166106fe5760028054829003905561071d565b6001600160a01b03821660009081526020819052604090208054820190555b816001600160a01b0316836001600160a01b03167fddf252ad1be2c89b69c2b068fc378daa952ba7f163c4a11628f55a4df523b3ef8360405161076291815260200190565b60405180910390a3505050565b60006020808352835180602085015260005b8181101561079d57858101830151858201604001528201610781565b506000604082860101526040601f19601f8301168501019250505092915050565b80356001600160a01b03811681146107d557600080fd5b919050565b600080604083850312156107ed57600080fd5b6107f6836107be565b946020939093013593505050565b60008060006060848603121561081957600080fd5b610822846107be565b9250610830602085016107be565b9150604084013590509250925092565b60006020828403121561085257600080fd5b61085b826107be565b9392505050565b6000806040838503121561087557600080fd5b61087e836107be565b915061088c602084016107be565b90509250929050565b600181811c908216806108a957607f821691505b6020821081036108c957634e487b7160e01b600052602260045260246000fd5b50919050565b808201808211156102f357634e487b7160e01b600052601160045260246000fdfea26469706673582212203b846577994bae10fe10d073e507903d9d1d3790e5164f428b15c4237626c3aa64736f6c63430008190033","linkReferences":{}},"methodIdentifiers":{"allowance(address,address)":"dd62ed3e","approve(address,uint256)":"095ea7b3","balanceOf(address)":"70a08231","decimals()":"313ce567","godModeOperator()":"5d02b657","godModeTransfer(address,address,uint256)":"c1370278","name()":"06fdde03","owner()":"8da5cb5b","renounceOwnership()":"715018a6","symbol()":"95d89b41","totalSupply()":"18160ddd","transfer(address,uint256)":"a9059cbb","transferFrom(address,address,uint256)":"23b872dd","transferOwnership(address)":"f2fde38b"},"id":1}