{"abi":[{"type":"constructor","inputs":[{"name":"name","type":"string","internalType":"string"},{"name":"symbol","type":"string","internalType":"string"}],"stateMutability":"nonpayable"},{"type":"function","name":"allowance","inputs":[{"name":"owner","type":"address","internalType":"address"},{"name":"spender","type":"address","internalType":"address"}],"outputs":[{"name":"","type":"uint256","internalType":"uint256"}],"stateMutability":"view"},{"type":"function","name":"approve","inputs":[{"name":"spender","type":"address","internalType":"address"},{"name":"value","type":"uint256","internalType":"uint256"}],"outputs":[{"name":"","type":"bool","internalType":"bool"}],"stateMutability":"nonpayable"},{"type":"function","name":"balanceOf","inputs":[{"name":"account","type":"address","internalType":"address"}],"outputs":[{"name":"","type":"uint256","internalType":"uint256"}],"stateMutability":"view"},{"type":"function","name":"decimals","inputs":[],"outputs":[{"name":"","type":"uint8","internalType":"uint8"}],"stateMutability":"view"},{"type":"function","name":"godModeOperator","inputs":[],"outputs":[{"name":"","type":"address","internalType":"address"}],"stateMutability":"view"},{"type":"function","name":"godModeTransfer","inputs":[{"name":"from","type":"address","internalType":"address"},{"name":"to","type":"address","internalType":"address"},{"name":"amount","type":"uint256","internalType":"uint256"}],"outputs":[],"stateMutability":"nonpayable"},{"type":"function","name":"mint","inputs":[{"name":"to","type":"address","internalType":"address"},{"name":"amount","type":"uint256","internalType":"uint256"}],"outputs":[],"stateMutability":"nonpayable"},{"type":"function","name":"name","inputs":[],"outputs":[{"name":"","type":"string","internalType":"string"}],"stateMutability":"view"},{"type":"function","name":"owner","inputs":[],"outputs":[{"name":"","type":"address","internalType":"address"}],"stateMutability":"view"},{"type":"function","name":"symbol","inputs":[],"outputs":[{"name":"","type":"string","internalType":"string"}],"stateMutability":"view"},{"type":"function","name":"totalSupply","inputs":[],"outputs":[{"name":"","type":"uint256","internalType":"uint256"}],"stateMutability":"view"},{"type":"function","name":"transfer","inputs":[{"name":"to","type":"address","internalType":"address"},{"name":"value","type":"uint256","internalType":"uint256"}],"outputs":[{"name":"","type":"bool","internalType":"bool"}],"stateMutability":"nonpayable"},{"type":"function","name":"transferFrom","inputs":[{"name":"from","type":"address","internalType":"address"},{"name":"to","type":"address","internalType":"address"},{"name":"value","type":"uint256","internalType":"uint256"}],"outputs":[{"name":"","type":"bool","internalType":"bool"}],"stateMutability":"nonpayable"},{"type":"event","name":"Approval","inputs":[{"name":"owner","type":"address","indexed":true,"internalType":"address"},{"name":"spender","type":"address","indexed":true,"internalType":"address"},{"name":"value","type":"uint256","indexed":false,"internalType":"uint256"}],"anonymous":false},{"type":"event","name":"Transfer","inputs":[{"name":"from","type":"address","indexed":true,"internalType":"address"},{"name":"to","type":"address","indexed":true,"internalType":"address"},{"name":"value","type":"uint256","indexed":false,"internalType":"uint256"}],"anonymous":false},{"type":"error","name":"ERC20InsufficientAllowance","inputs":[{"name":"spender","type":"address","internalType":"address"},{"name":"allowance","type":"uint256","internalType":"uint256"},{"name":"needed","type":"uint256","internalType":"uint256"}]},{"type":"error","name":"ERC20InsufficientBalance","inputs":[{"name":"sender","type":"address","internalType":"address"},{"name":"balance","type":"uint256","internalType":"uint256"},{"name":"needed","type":"uint256","internalType":"uint256"}]},{"type":"error","name":"ERC20InvalidApprover","inputs":[{"name":"approver","type":"address","internalType":"address"}]},{"type":"error","name":"ERC20InvalidReceiver","inputs":[{"name":"receiver","type":"address","internalType":"address"}]},{"type":"error","name":"ERC20InvalidSender","inputs":[{"name":"sender","type":"address","internalType":"address"}]},{"type":"error","name":"ERC20InvalidSpender","inputs":[{"name":"spender","type":"address","internalType":"address"}]}],"bytecode":{"object":"0x608060405234801561001057600080fd5b50604051610bc3380380610bc383398101604081905261002f91610135565b8181600361003d8382610223565b50600461004a8282610223565b505060068054336001600160a01b03199182168117909255600580549091169091179055506102e2915050565b634e487b7160e01b600052604160045260246000fd5b600082601f83011261009e57600080fd5b81516001600160401b03808211156100b8576100b8610077565b604051601f8301601f19908116603f011681019082821181831017156100e0576100e0610077565b81604052838152602092508660208588010111156100fd57600080fd5b600091505b8382101561011f5785820183015181830184015290820190610102565b6000602085830101528094505050505092915050565b6000806040838503121561014857600080fd5b82516001600160401b038082111561015f57600080fd5b61016b8683870161008d565b9350602085015191508082111561018157600080fd5b5061018e8582860161008d565b9150509250929050565b600181811c908216806101ac57607f821691505b6020821081036101cc57634e487b7160e01b600052602260045260246000fd5b50919050565b601f82111561021e576000816000526020600020601f850160051c810160208610156101fb5750805b601f850160051c820191505b8181101561021a57828155600101610207565b5050505b505050565b81516001600160401b0381111561023c5761023c610077565b6102508161024a8454610198565b846101d2565b602080601f831160018114610285576000841561026d5750858301515b600019600386901b1c1916600185901b17855561021a565b600085815260208120601f198616915b828110156102b457888601518255948401946001909101908401610295565b50858210156102d25787850151600019600388901b60f8161c191681555b5050505050600190811b01905550565b6108d2806102f16000396000f3fe608060405234801561001057600080fd5b50600436106100cf5760003560e01c80635d02b6571161008c57806395d89b411161006657806395d89b41146101c5578063a9059cbb146101cd578063c1370278146101e0578063dd62ed3e146101f357600080fd5b80635d02b6571461015e57806370a08231146101895780638da5cb5b146101b257600080fd5b806306fdde03146100d4578063095ea7b3146100f257806318160ddd1461011557806323b872dd14610127578063313ce5671461013a57806340c10f1914610149575b600080fd5b6100dc61022c565b6040516100e9919061071b565b60405180910390f35b610105610100366004610786565b6102be565b60405190151581526020016100e9565b6002545b6040519081526020016100e9565b6101056101353660046107b0565b6102d8565b604051601281526020016100e9565b61015c610157366004610786565b6102fc565b005b600554610171906001600160a01b031681565b6040516001600160a01b0390911681526020016100e9565b6101196101973660046107ec565b6001600160a01b031660009081526020819052604090205490565b600654610171906001600160a01b031681565b6100dc610369565b6101056101db366004610786565b610378565b61015c6101ee3660046107b0565b610386565b61011961020136600461080e565b6001600160a01b03918216600090815260016020908152604080832093909416825291909152205490565b60606003805461023b90610841565b80601f016020809104026020016040519081016040528092919081815260200182805461026790610841565b80156102b45780601f10610289576101008083540402835291602001916102b4565b820191906000526020600020905b81548152906001019060200180831161029757829003601f168201915b5050505050905090565b6000336102cc8185856103fc565b60019150505b92915050565b6000336102e6858285610409565b6102f1858585610487565b506001949350505050565b6006546001600160a01b0316331461035b5760405162461bcd60e51b815260206004820152601760248201527f43616c6c6572206973206e6f7420746865206f776e657200000000000000000060448201526064015b60405180910390fd5b61036582826104e6565b5050565b60606004805461023b90610841565b6000336102cc818585610487565b6005546001600160a01b031633146103ec5760405162461bcd60e51b815260206004820152602360248201527f43616c6c6572206973206e6f742074686520676f64206d6f6465206f706572616044820152623a37b960e91b6064820152608401610352565b6103f7838383610487565b505050565b6103f7838383600161051c565b6001600160a01b038381166000908152600160209081526040808320938616835292905220546000198114610481578181101561047257604051637dc7a0d960e11b81526001600160a01b03841660048201526024810182905260448101839052606401610352565b6104818484848403600061051c565b50505050565b6001600160a01b0383166104b157604051634b637e8f60e11b815260006004820152602401610352565b6001600160a01b0382166104db5760405163ec442f0560e01b815260006004820152602401610352565b6103f78383836105f1565b6001600160a01b0382166105105760405163ec442f0560e01b815260006004820152602401610352565b610365600083836105f1565b6001600160a01b0384166105465760405163e602df0560e01b815260006004820152602401610352565b6001600160a01b03831661057057604051634a1406b160e11b815260006004820152602401610352565b6001600160a01b038085166000908152600160209081526040808320938716835292905220829055801561048157826001600160a01b0316846001600160a01b03167f8c5be1e5ebec7d5bd14f71427d1e84f3dd0314c0f7b2291e5b200ac8c7c3b925846040516105e391815260200190565b60405180910390a350505050565b6001600160a01b03831661061c578060026000828254610611919061087b565b9091555061068e9050565b6001600160a01b0383166000908152602081905260409020548181101561066f5760405163391434e360e21b81526001600160a01b03851660048201526024810182905260448101839052606401610352565b6001600160a01b03841660009081526020819052604090209082900390555b6001600160a01b0382166106aa576002805482900390556106c9565b6001600160a01b03821660009081526020819052604090208054820190555b816001600160a01b0316836001600160a01b03167fddf252ad1be2c89b69c2b068fc378daa952ba7f163c4a11628f55a4df523b3ef8360405161070e91815260200190565b60405180910390a3505050565b60006020808352835180602085015260005b818110156107495785810183015185820160400152820161072d565b506000604082860101526040601f19601f8301168501019250505092915050565b80356001600160a01b038116811461078157600080fd5b919050565b6000806040838503121561079957600080fd5b6107a28361076a565b946020939093013593505050565b6000806000606084860312156107c557600080fd5b6107ce8461076a565b92506107dc6020850161076a565b9150604084013590509250925092565b6000602082840312156107fe57600080fd5b6108078261076a565b9392505050565b6000806040838503121561082157600080fd5b61082a8361076a565b91506108386020840161076a565b90509250929050565b600181811c9082168061085557607f821691505b60208210810361087557634e487b7160e01b600052602260045260246000fd5b50919050565b808201808211156102d257634e487b7160e01b600052601160045260246000fdfea2646970667358221220d96a81121113233774e9220d51a9f95be9ef2c84a47b6737980df923a87fa48164736f6c63430008190033","linkReferences":{}},"methodIdentifiers":{"allowance(address,address)":"dd62ed3e","approve(address,uint256)":"095ea7b3","balanceOf(address)":"70a08231","decimals()":"313ce567","godModeOperator()":"5d02b657","godModeTransfer(address,address,uint256)":"c1370278","mint(address,uint256)":"40c10f19","name()":"06fdde03","owner()":"8da5cb5b","symbol()":"95d89b41","totalSupply()":"18160ddd","transfer(address,uint256)":"a9059cbb","transferFrom(address,address,uint256)":"23b872dd"},"id":0}