{"abi":[{"type":"constructor","inputs":[{"name":"_seller","type":"address","internalType":"address"}],"stateMutability":"nonpayable"},{"type":"function","name":"DELAY","inputs":[],"outputs":[{"name":"","type":"uint256","internalType":"uint256"}],"stateMutability":"view"},{"type":"function","name":"buyer","inputs":[],"outputs":[{"name":"","type":"address","internalType":"address"}],"stateMutability":"view"},{"type":"function","name":"deposit","inputs":[{"name":"token","type":"address","internalType":"address"},{"name":"amount","type":"uint256","internalType":"uint256"}],"outputs":[],"stateMutability":"nonpayable"},{"type":"function","name":"depositTime","inputs":[],"outputs":[{"name":"","type":"uint256","internalType":"uint256"}],"stateMutability":"view"},{"type":"function","name":"seller","inputs":[],"outputs":[{"name":"","type":"address","internalType":"address"}],"stateMutability":"view"},{"type":"function","name":"withdraw","inputs":[{"name":"token","type":"address","internalType":"address"},{"name":"amount","type":"uint256","internalType":"uint256"}],"outputs":[],"stateMutability":"nonpayable"},{"type":"error","name":"ReentrancyGuardReentrantCall","inputs":[]}],"bytecode":{"object":"0x6080604052348015600f57600080fd5b50604051610443380380610443833981016040819052602c916055565b6001600081905580546001600160a01b0319166001600160a01b03929092169190911790556083565b600060208284031215606657600080fd5b81516001600160a01b0381168114607c57600080fd5b9392505050565b6103b1806100926000396000f3fe608060405234801561001057600080fd5b50600436106100625760003560e01c806308551a531461006757806347e7ef24146100975780635e8a626e146100ac57806369b41170146100c35780637150d8ae146100cd578063f3fef3a3146100e0575b600080fd5b60015461007a906001600160a01b031681565b6040516001600160a01b0390911681526020015b60405180910390f35b6100aa6100a53660046102f3565b6100f3565b005b6100b560035481565b60405190815260200161008e565b6100b56203f48081565b60025461007a906001600160a01b031681565b6100aa6100ee3660046102f3565b610185565b6040516323b872dd60e01b8152336004820152306024820152604481018290526001600160a01b038316906323b872dd906064016020604051808303816000875af1158015610146573d6000803e3d6000fd5b505050506040513d601f19601f8201168201806040525081019061016a919061032b565b5050600280546001600160a01b031916331790555042600355565b61018d6102c9565b6001546001600160a01b031633146101ec5760405162461bcd60e51b815260206004820152601860248201527f4f6e6c792073656c6c65722063616e207769746864726177000000000000000060448201526064015b60405180910390fd5b6203f4806003546101fd9190610354565b4210156102435760405162461bcd60e51b815260206004820152601460248201527311195b185e481b9bdd081e595d081c185cdcd95960621b60448201526064016101e3565b60015460405163a9059cbb60e01b81526001600160a01b039182166004820152602481018390529083169063a9059cbb906044016020604051808303816000875af1158015610296573d6000803e3d6000fd5b505050506040513d601f19601f820116820180604052508101906102ba919061032b565b506102c56001600055565b5050565b6002600054036102ec57604051633ee5aeb560e01b815260040160405180910390fd5b6002600055565b6000806040838503121561030657600080fd5b82356001600160a01b038116811461031d57600080fd5b946020939093013593505050565b60006020828403121561033d57600080fd5b8151801515811461034d57600080fd5b9392505050565b8082018082111561037557634e487b7160e01b600052601160045260246000fd5b9291505056fea2646970667358221220beb736ccd70025845dfc775458e1c53776318577cdab4b5a97554c4d44ec750c64736f6c63430008190033","linkReferences":{}},"methodIdentifiers":{"DELAY()":"69b41170","buyer()":"7150d8ae","deposit(address,uint256)":"47e7ef24","depositTime()":"5e8a626e","seller()":"08551a53","withdraw(address,uint256)":"f3fef3a3"},"id":3}