{"abi":[{"type":"constructor","inputs":[{"name":"_seller","type":"address","internalType":"address"}],"stateMutability":"nonpayable"},{"type":"function","name":"DELAY","inputs":[],"outputs":[{"name":"","type":"uint256","internalType":"uint256"}],"stateMutability":"view"},{"type":"function","name":"buyer","inputs":[],"outputs":[{"name":"","type":"address","internalType":"address"}],"stateMutability":"view"},{"type":"function","name":"cancel","inputs":[{"name":"token","type":"address","internalType":"address"}],"outputs":[],"stateMutability":"nonpayable"},{"type":"function","name":"deposit","inputs":[{"name":"token","type":"address","internalType":"address"},{"name":"amount","type":"uint256","internalType":"uint256"}],"outputs":[],"stateMutability":"nonpayable"},{"type":"function","name":"depositTime","inputs":[],"outputs":[{"name":"","type":"uint256","internalType":"uint256"}],"stateMutability":"view"},{"type":"function","name":"deposits","inputs":[{"name":"","type":"address","internalType":"address"}],"outputs":[{"name":"","type":"uint256","internalType":"uint256"}],"stateMutability":"view"},{"type":"function","name":"seller","inputs":[],"outputs":[{"name":"","type":"address","internalType":"address"}],"stateMutability":"view"},{"type":"function","name":"withdraw","inputs":[{"name":"token","type":"address","internalType":"address"}],"outputs":[],"stateMutability":"nonpayable"},{"type":"error","name":"AddressEmptyCode","inputs":[{"name":"target","type":"address","internalType":"address"}]},{"type":"error","name":"AddressInsufficientBalance","inputs":[{"name":"account","type":"address","internalType":"address"}]},{"type":"error","name":"FailedInnerCall","inputs":[]},{"type":"error","name":"ReentrancyGuardReentrantCall","inputs":[]},{"type":"error","name":"SafeERC20FailedOperation","inputs":[{"name":"token","type":"address","internalType":"address"}]}],"bytecode":{"object":"0x6080604052348015600f57600080fd5b506040516109cd3803806109cd833981016040819052602c9160ae565b60016000556001600160a01b038116608a5760405162461bcd60e51b815260206004820152601660248201527f496e76616c69642073656c6c6572206164647265737300000000000000000000604482015260640160405180910390fd5b600180546001600160a01b0319166001600160a01b039290921691909117905560dc565b60006020828403121560bf57600080fd5b81516001600160a01b038116811460d557600080fd5b9392505050565b6108e2806100eb6000396000f3fe608060405234801561001057600080fd5b50600436106100885760003560e01c80635e8a626e1161005b5780635e8a626e146100f857806369b411701461010f5780637150d8ae14610119578063fc7e286d1461012c57600080fd5b806308551a531461008d57806347e7ef24146100bd5780634c33fe94146100d257806351cff8d9146100e5575b600080fd5b6001546100a0906001600160a01b031681565b6040516001600160a01b0390911681526020015b60405180910390f35b6100d06100cb3660046107dc565b61014c565b005b6100d06100e0366004610806565b6102f7565b6100d06100f3366004610806565b6103fd565b61010160035481565b6040519081526020016100b4565b6101016203f48081565b6002546100a0906001600160a01b031681565b61010161013a366004610806565b60046020526000908152604090205481565b6002546001600160a01b0316156101a15760405162461bcd60e51b81526020600482015260146024820152734465706f73697420616c7265616479206d61646560601b60448201526064015b60405180910390fd5b600081116101f15760405162461bcd60e51b815260206004820181905260248201527f416d6f756e74206d7573742062652067726561746572207468616e207a65726f6044820152606401610198565b6102066001600160a01b038316333084610555565b6040516370a0823160e01b81523060048201526000906001600160a01b038416906370a0823190602401602060405180830381865afa15801561024d573d6000803e3d6000fd5b505050506040513d601f19601f820116820180604052508101906102719190610821565b9050818110156102c35760405162461bcd60e51b815260206004820152601860248201527f5472616e7366657220616d6f756e74206d69736d6174636800000000000000006044820152606401610198565b50600280546001600160a01b03191633179055426003556001600160a01b0391909116600090815260046020526040902055565b6102ff6105c2565b6002546001600160a01b031633146103515760405162461bcd60e51b815260206004820152601560248201527413db9b1e48189d5e595c8818d85b8818d85b98d95b605a1b6044820152606401610198565b6203f480600354610362919061083a565b42106103b05760405162461bcd60e51b815260206004820152601960248201527f43616e6e6f742063616e63656c2061667465722064656c6179000000000000006044820152606401610198565b6001600160a01b038082166000818152600460205260408120805491905560025490926103df929116836105ec565b50600280546001600160a01b03191690556103fa6001600055565b50565b6104056105c2565b6001546001600160a01b0316331461045f5760405162461bcd60e51b815260206004820152601860248201527f4f6e6c792073656c6c65722063616e20776974686472617700000000000000006044820152606401610198565b6203f480600354610470919061083a565b4210156104b65760405162461bcd60e51b815260206004820152601460248201527311195b185e481b9bdd081e595d081c185cdcd95960621b6044820152606401610198565b6001600160a01b03811660009081526004602052604090205461051b5760405162461bcd60e51b815260206004820152601960248201527f4e6f206465706f73697420666f72207468697320746f6b656e000000000000006044820152606401610198565b6001600160a01b0380821660008181526004602052604081208054919055600154909261054a929116836105ec565b506103fa6001600055565b6040516001600160a01b0384811660248301528381166044830152606482018390526105bc9186918216906323b872dd906084015b604051602081830303815290604052915060e01b6020820180516001600160e01b038381831617835250505050610622565b50505050565b6002600054036105e557604051633ee5aeb560e01b815260040160405180910390fd5b6002600055565b6040516001600160a01b0383811660248301526044820183905261061d91859182169063a9059cbb9060640161058a565b505050565b60006106376001600160a01b03841683610685565b9050805160001415801561065c57508080602001905181019061065a919061085b565b155b1561061d57604051635274afe760e01b81526001600160a01b0384166004820152602401610198565b60606106938383600061069c565b90505b92915050565b6060814710156106c15760405163cd78605960e01b8152306004820152602401610198565b600080856001600160a01b031684866040516106dd919061087d565b60006040518083038185875af1925050503d806000811461071a576040519150601f19603f3d011682016040523d82523d6000602084013e61071f565b606091505b509150915061072f86838361073b565b925050505b9392505050565b6060826107505761074b82610797565b610734565b815115801561076757506001600160a01b0384163b155b1561079057604051639996b31560e01b81526001600160a01b0385166004820152602401610198565b5080610734565b8051156107a75780518082602001fd5b604051630a12f52160e11b815260040160405180910390fd5b80356001600160a01b03811681146107d757600080fd5b919050565b600080604083850312156107ef57600080fd5b6107f8836107c0565b946020939093013593505050565b60006020828403121561081857600080fd5b610693826107c0565b60006020828403121561083357600080fd5b5051919050565b8082018082111561069657634e487b7160e01b600052601160045260246000fd5b60006020828403121561086d57600080fd5b8151801515811461073457600080fd5b6000825160005b8181101561089e5760208186018101518583015201610884565b50600092019182525091905056fea26469706673582212206d0cb7fe2ebee7dc716c4111b537a1d8c120cb412dd0f1c7d91140455e62a58d64736f6c63430008190033","linkReferences":{}},"methodIdentifiers":{"DELAY()":"69b41170","buyer()":"7150d8ae","cancel(address)":"4c33fe94","deposit(address,uint256)":"47e7ef24","depositTime()":"5e8a626e","deposits(address)":"fc7e286d","seller()":"08551a53","withdraw(address)":"51cff8d9"},"id":0}