{"abi":[{"type":"constructor","inputs":[{"name":"name","type":"string","internalType":"string"},{"name":"symbol","type":"string","internalType":"string"}],"stateMutability":"nonpayable"},{"type":"function","name":"BASE_PRICE","inputs":[],"outputs":[{"name":"","type":"uint256","internalType":"uint256"}],"stateMutability":"view"},{"type":"function","name":"allowance","inputs":[{"name":"owner","type":"address","internalType":"address"},{"name":"spender","type":"address","internalType":"address"}],"outputs":[{"name":"","type":"uint256","internalType":"uint256"}],"stateMutability":"view"},{"type":"function","name":"approve","inputs":[{"name":"spender","type":"address","internalType":"address"},{"name":"value","type":"uint256","internalType":"uint256"}],"outputs":[{"name":"","type":"bool","internalType":"bool"}],"stateMutability":"nonpayable"},{"type":"function","name":"balanceOf","inputs":[{"name":"account","type":"address","internalType":"address"}],"outputs":[{"name":"","type":"uint256","internalType":"uint256"}],"stateMutability":"view"},{"type":"function","name":"buyTokens","inputs":[{"name":"numTokens","type":"uint256","internalType":"uint256"}],"outputs":[],"stateMutability":"payable"},{"type":"function","name":"decimals","inputs":[],"outputs":[{"name":"","type":"uint8","internalType":"uint8"}],"stateMutability":"view"},{"type":"function","name":"name","inputs":[],"outputs":[{"name":"","type":"string","internalType":"string"}],"stateMutability":"view"},{"type":"function","name":"sellTokens","inputs":[{"name":"numTokens","type":"uint256","internalType":"uint256"}],"outputs":[],"stateMutability":"nonpayable"},{"type":"function","name":"symbol","inputs":[],"outputs":[{"name":"","type":"string","internalType":"string"}],"stateMutability":"view"},{"type":"function","name":"totalSupply","inputs":[],"outputs":[{"name":"","type":"uint256","internalType":"uint256"}],"stateMutability":"view"},{"type":"function","name":"transfer","inputs":[{"name":"to","type":"address","internalType":"address"},{"name":"value","type":"uint256","internalType":"uint256"}],"outputs":[{"name":"","type":"bool","internalType":"bool"}],"stateMutability":"nonpayable"},{"type":"function","name":"transferFrom","inputs":[{"name":"from","type":"address","internalType":"address"},{"name":"to","type":"address","internalType":"address"},{"name":"value","type":"uint256","internalType":"uint256"}],"outputs":[{"name":"","type":"bool","internalType":"bool"}],"stateMutability":"nonpayable"},{"type":"event","name":"Approval","inputs":[{"name":"owner","type":"address","indexed":true,"internalType":"address"},{"name":"spender","type":"address","indexed":true,"internalType":"address"},{"name":"value","type":"uint256","indexed":false,"internalType":"uint256"}],"anonymous":false},{"type":"event","name":"Transfer","inputs":[{"name":"from","type":"address","indexed":true,"internalType":"address"},{"name":"to","type":"address","indexed":true,"internalType":"address"},{"name":"value","type":"uint256","indexed":false,"internalType":"uint256"}],"anonymous":false},{"type":"error","name":"ERC20InsufficientAllowance","inputs":[{"name":"spender","type":"address","internalType":"address"},{"name":"allowance","type":"uint256","internalType":"uint256"},{"name":"needed","type":"uint256","internalType":"uint256"}]},{"type":"error","name":"ERC20InsufficientBalance","inputs":[{"name":"sender","type":"address","internalType":"address"},{"name":"balance","type":"uint256","internalType":"uint256"},{"name":"needed","type":"uint256","internalType":"uint256"}]},{"type":"error","name":"ERC20InvalidApprover","inputs":[{"name":"approver","type":"address","internalType":"address"}]},{"type":"error","name":"ERC20InvalidReceiver","inputs":[{"name":"receiver","type":"address","internalType":"address"}]},{"type":"error","name":"ERC20InvalidSender","inputs":[{"name":"sender","type":"address","internalType":"address"}]},{"type":"error","name":"ERC20InvalidSpender","inputs":[{"name":"spender","type":"address","internalType":"address"}]}],"bytecode":{"object":"0x608060405234801561001057600080fd5b50604051610c76380380610c7683398101604081905261002f91610112565b8181600361003d8382610200565b50600461004a8282610200565b50505050506102bf565b634e487b7160e01b600052604160045260246000fd5b600082601f83011261007b57600080fd5b81516001600160401b038082111561009557610095610054565b604051601f8301601f19908116603f011681019082821181831017156100bd576100bd610054565b81604052838152602092508660208588010111156100da57600080fd5b600091505b838210156100fc57858201830151818301840152908201906100df565b6000602085830101528094505050505092915050565b6000806040838503121561012557600080fd5b82516001600160401b038082111561013c57600080fd5b6101488683870161006a565b9350602085015191508082111561015e57600080fd5b5061016b8582860161006a565b9150509250929050565b600181811c9082168061018957607f821691505b6020821081036101a957634e487b7160e01b600052602260045260246000fd5b50919050565b601f8211156101fb576000816000526020600020601f850160051c810160208610156101d85750805b601f850160051c820191505b818110156101f7578281556001016101e4565b5050505b505050565b81516001600160401b0381111561021957610219610054565b61022d816102278454610175565b846101af565b602080601f831160018114610262576000841561024a5750858301515b600019600386901b1c1916600185901b1785556101f7565b600085815260208120601f198616915b8281101561029157888601518255948401946001909101908401610272565b50858210156102af5787850151600019600388901b60f8161c191681555b5050505050600190811b01905550565b6109a8806102ce6000396000f3fe6080604052600436106100a75760003560e01c80636c11bcd3116100645780636c11bcd31461017757806370a082311461019757806395d89b41146101cd578063a9059cbb146101e2578063dd62ed3e14610202578063f86325ed1461024857600080fd5b806306fdde03146100ac578063095ea7b3146100d757806318160ddd1461010757806323b872dd14610126578063313ce567146101465780633610724e14610162575b600080fd5b3480156100b857600080fd5b506100c1610264565b6040516100ce91906107b9565b60405180910390f35b3480156100e357600080fd5b506100f76100f2366004610824565b6102f6565b60405190151581526020016100ce565b34801561011357600080fd5b506002545b6040519081526020016100ce565b34801561013257600080fd5b506100f761014136600461084e565b610310565b34801561015257600080fd5b50604051601281526020016100ce565b61017561017036600461088a565b610334565b005b34801561018357600080fd5b5061017561019236600461088a565b6103cd565b3480156101a357600080fd5b506101186101b23660046108a3565b6001600160a01b031660009081526020819052604090205490565b3480156101d957600080fd5b506100c1610449565b3480156101ee57600080fd5b506100f76101fd366004610824565b610458565b34801561020e57600080fd5b5061011861021d3660046108c5565b6001600160a01b03918216600090815260016020908152604080832093909416825291909152205490565b34801561025457600080fd5b50610118670de0b6b3a764000081565b606060038054610273906108f8565b80601f016020809104026020016040519081016040528092919081815260200182805461029f906108f8565b80156102ec5780601f106102c1576101008083540402835291602001916102ec565b820191906000526020600020905b8154815290600101906020018083116102cf57829003601f168201915b5050505050905090565b600033610304818585610466565b60019150505b92915050565b60003361031e858285610473565b6103298585856104eb565b506001949350505050565b600061033f60025490565b905060008261035583662386f26fc10000610948565b61036790670de0b6b3a764000061095f565b6103719190610948565b9050803410156103be5760405162461bcd60e51b8152602060048201526013602482015272139bdd08195b9bdd59da08115512081cd95b9d606a1b60448201526064015b60405180910390fd5b6103c8338461054a565b505050565b60006103d860025490565b90506000826103ee83662386f26fc10000610948565b61040090670de0b6b3a764000061095f565b61040a9190610948565b90506104163384610584565b604051339082156108fc029083906000818181858888f19350505050158015610443573d6000803e3d6000fd5b50505050565b606060048054610273906108f8565b6000336103048185856104eb565b6103c883838360016105ba565b6001600160a01b03838116600090815260016020908152604080832093861683529290522054600019811461044357818110156104dc57604051637dc7a0d960e11b81526001600160a01b038416600482015260248101829052604481018390526064016103b5565b610443848484840360006105ba565b6001600160a01b03831661051557604051634b637e8f60e11b8152600060048201526024016103b5565b6001600160a01b03821661053f5760405163ec442f0560e01b8152600060048201526024016103b5565b6103c883838361068f565b6001600160a01b0382166105745760405163ec442f0560e01b8152600060048201526024016103b5565b6105806000838361068f565b5050565b6001600160a01b0382166105ae57604051634b637e8f60e11b8152600060048201526024016103b5565b6105808260008361068f565b6001600160a01b0384166105e45760405163e602df0560e01b8152600060048201526024016103b5565b6001600160a01b03831661060e57604051634a1406b160e11b8152600060048201526024016103b5565b6001600160a01b038085166000908152600160209081526040808320938716835292905220829055801561044357826001600160a01b0316846001600160a01b03167f8c5be1e5ebec7d5bd14f71427d1e84f3dd0314c0f7b2291e5b200ac8c7c3b9258460405161068191815260200190565b60405180910390a350505050565b6001600160a01b0383166106ba5780600260008282546106af919061095f565b9091555061072c9050565b6001600160a01b0383166000908152602081905260409020548181101561070d5760405163391434e360e21b81526001600160a01b038516600482015260248101829052604481018390526064016103b5565b6001600160a01b03841660009081526020819052604090209082900390555b6001600160a01b03821661074857600280548290039055610767565b6001600160a01b03821660009081526020819052604090208054820190555b816001600160a01b0316836001600160a01b03167fddf252ad1be2c89b69c2b068fc378daa952ba7f163c4a11628f55a4df523b3ef836040516107ac91815260200190565b60405180910390a3505050565b60006020808352835180602085015260005b818110156107e7578581018301518582016040015282016107cb565b506000604082860101526040601f19601f8301168501019250505092915050565b80356001600160a01b038116811461081f57600080fd5b919050565b6000806040838503121561083757600080fd5b61084083610808565b946020939093013593505050565b60008060006060848603121561086357600080fd5b61086c84610808565b925061087a60208501610808565b9150604084013590509250925092565b60006020828403121561089c57600080fd5b5035919050565b6000602082840312156108b557600080fd5b6108be82610808565b9392505050565b600080604083850312156108d857600080fd5b6108e183610808565b91506108ef60208401610808565b90509250929050565b600181811c9082168061090c57607f821691505b60208210810361092c57634e487b7160e01b600052602260045260246000fd5b50919050565b634e487b7160e01b600052601160045260246000fd5b808202811582820484141761030a5761030a610932565b8082018082111561030a5761030a61093256fea2646970667358221220adf5dc160c7421663519e4d377711d6238680ce901e53908409dc575b72097f164736f6c63430008190033","linkReferences":{}},"methodIdentifiers":{"BASE_PRICE()":"f86325ed","allowance(address,address)":"dd62ed3e","approve(address,uint256)":"095ea7b3","balanceOf(address)":"70a08231","buyTokens(uint256)":"3610724e","decimals()":"313ce567","name()":"06fdde03","sellTokens(uint256)":"6c11bcd3","symbol()":"95d89b41","totalSupply()":"18160ddd","transfer(address,uint256)":"a9059cbb","transferFrom(address,address,uint256)":"23b872dd"},"id":0}