{"abi":[{"type":"constructor","inputs":[{"name":"name","type":"string","internalType":"string"},{"name":"symbol","type":"string","internalType":"string"},{"name":"initialOwner","type":"address","internalType":"address"}],"stateMutability":"nonpayable"},{"type":"function","name":"SLOPE","inputs":[],"outputs":[{"name":"","type":"uint256","internalType":"uint256"}],"stateMutability":"view"},{"type":"function","name":"allowance","inputs":[{"name":"owner","type":"address","internalType":"address"},{"name":"spender","type":"address","internalType":"address"}],"outputs":[{"name":"","type":"uint256","internalType":"uint256"}],"stateMutability":"view"},{"type":"function","name":"approve","inputs":[{"name":"spender","type":"address","internalType":"address"},{"name":"value","type":"uint256","internalType":"uint256"}],"outputs":[{"name":"","type":"bool","internalType":"bool"}],"stateMutability":"nonpayable"},{"type":"function","name":"balanceOf","inputs":[{"name":"account","type":"address","internalType":"address"}],"outputs":[{"name":"","type":"uint256","internalType":"uint256"}],"stateMutability":"view"},{"type":"function","name":"buy","inputs":[{"name":"_tokenAmount","type":"uint256","internalType":"uint256"}],"outputs":[],"stateMutability":"payable"},{"type":"function","name":"buyDelay","inputs":[],"outputs":[{"name":"","type":"uint256","internalType":"uint256"}],"stateMutability":"view"},{"type":"function","name":"buyWithProtection","inputs":[{"name":"_tokenAmount","type":"uint256","internalType":"uint256"},{"name":"maxCost","type":"uint256","internalType":"uint256"}],"outputs":[],"stateMutability":"payable"},{"type":"function","name":"decimals","inputs":[],"outputs":[{"name":"","type":"uint8","internalType":"uint8"}],"stateMutability":"view"},{"type":"function","name":"getPrice","inputs":[{"name":"_tokenAmount","type":"uint256","internalType":"uint256"}],"outputs":[{"name":"","type":"uint256","internalType":"uint256"}],"stateMutability":"view"},{"type":"function","name":"lastBuyTimestamp","inputs":[],"outputs":[{"name":"","type":"uint256","internalType":"uint256"}],"stateMutability":"view"},{"type":"function","name":"name","inputs":[],"outputs":[{"name":"","type":"string","internalType":"string"}],"stateMutability":"view"},{"type":"function","name":"owner","inputs":[],"outputs":[{"name":"","type":"address","internalType":"address"}],"stateMutability":"view"},{"type":"function","name":"renounceOwnership","inputs":[],"outputs":[],"stateMutability":"nonpayable"},{"type":"function","name":"reserveBalance","inputs":[],"outputs":[{"name":"","type":"uint256","internalType":"uint256"}],"stateMutability":"view"},{"type":"function","name":"sell","inputs":[{"name":"_tokenAmount","type":"uint256","internalType":"uint256"}],"outputs":[],"stateMutability":"nonpayable"},{"type":"function","name":"setBuyDelay","inputs":[{"name":"_buyDelay","type":"uint256","internalType":"uint256"}],"outputs":[],"stateMutability":"nonpayable"},{"type":"function","name":"symbol","inputs":[],"outputs":[{"name":"","type":"string","internalType":"string"}],"stateMutability":"view"},{"type":"function","name":"totalSupply","inputs":[],"outputs":[{"name":"","type":"uint256","internalType":"uint256"}],"stateMutability":"view"},{"type":"function","name":"transfer","inputs":[{"name":"to","type":"address","internalType":"address"},{"name":"value","type":"uint256","internalType":"uint256"}],"outputs":[{"name":"","type":"bool","internalType":"bool"}],"stateMutability":"nonpayable"},{"type":"function","name":"transferFrom","inputs":[{"name":"from","type":"address","internalType":"address"},{"name":"to","type":"address","internalType":"address"},{"name":"value","type":"uint256","internalType":"uint256"}],"outputs":[{"name":"","type":"bool","internalType":"bool"}],"stateMutability":"nonpayable"},{"type":"function","name":"transferOwnership","inputs":[{"name":"newOwner","type":"address","internalType":"address"}],"outputs":[],"stateMutability":"nonpayable"},{"type":"event","name":"Approval","inputs":[{"name":"owner","type":"address","indexed":true,"internalType":"address"},{"name":"spender","type":"address","indexed":true,"internalType":"address"},{"name":"value","type":"uint256","indexed":false,"internalType":"uint256"}],"anonymous":false},{"type":"event","name":"OwnershipTransferred","inputs":[{"name":"previousOwner","type":"address","indexed":true,"internalType":"address"},{"name":"newOwner","type":"address","indexed":true,"internalType":"address"}],"anonymous":false},{"type":"event","name":"Transfer","inputs":[{"name":"from","type":"address","indexed":true,"internalType":"address"},{"name":"to","type":"address","indexed":true,"internalType":"address"},{"name":"value","type":"uint256","indexed":false,"internalType":"uint256"}],"anonymous":false},{"type":"error","name":"ERC20InsufficientAllowance","inputs":[{"name":"spender","type":"address","internalType":"address"},{"name":"allowance","type":"uint256","internalType":"uint256"},{"name":"needed","type":"uint256","internalType":"uint256"}]},{"type":"error","name":"ERC20InsufficientBalance","inputs":[{"name":"sender","type":"address","internalType":"address"},{"name":"balance","type":"uint256","internalType":"uint256"},{"name":"needed","type":"uint256","internalType":"uint256"}]},{"type":"error","name":"ERC20InvalidApprover","inputs":[{"name":"approver","type":"address","internalType":"address"}]},{"type":"error","name":"ERC20InvalidReceiver","inputs":[{"name":"receiver","type":"address","internalType":"address"}]},{"type":"error","name":"ERC20InvalidSender","inputs":[{"name":"sender","type":"address","internalType":"address"}]},{"type":"error","name":"ERC20InvalidSpender","inputs":[{"name":"spender","type":"address","internalType":"address"}]},{"type":"error","name":"OwnableInvalidOwner","inputs":[{"name":"owner","type":"address","internalType":"address"}]},{"type":"error","name":"OwnableUnauthorizedAccount","inputs":[{"name":"account","type":"address","internalType":"address"}]}],"bytecode":{"object":"0x6080604052603c60085534801561001557600080fd5b506040516110f63803806110f6833981016040819052610034916101a3565b808383600361004383826102b3565b50600461005082826102b3565b5050506001600160a01b03811661008157604051631e4fbdf760e01b81526000600482015260240160405180910390fd5b61008a81610093565b50505050610372565b600580546001600160a01b038381166001600160a01b0319831681179093556040519116919082907f8be0079c531659141344cd1fd0a4f28419497f9722a3daafe3b4186f6b6457e090600090a35050565b634e487b7160e01b600052604160045260246000fd5b600082601f83011261010c57600080fd5b81516001600160401b0380821115610126576101266100e5565b604051601f8301601f19908116603f0116810190828211818310171561014e5761014e6100e5565b816040528381526020925086602085880101111561016b57600080fd5b600091505b8382101561018d5785820183015181830184015290820190610170565b6000602085830101528094505050505092915050565b6000806000606084860312156101b857600080fd5b83516001600160401b03808211156101cf57600080fd5b6101db878388016100fb565b945060208601519150808211156101f157600080fd5b506101fe868287016100fb565b604086015190935090506001600160a01b038116811461021d57600080fd5b809150509250925092565b600181811c9082168061023c57607f821691505b60208210810361025c57634e487b7160e01b600052602260045260246000fd5b50919050565b601f8211156102ae576000816000526020600020601f850160051c8101602086101561028b5750805b601f850160051c820191505b818110156102aa57828155600101610297565b5050505b505050565b81516001600160401b038111156102cc576102cc6100e5565b6102e0816102da8454610228565b84610262565b602080601f83116001811461031557600084156102fd5750858301515b600019600386901b1c1916600185901b1785556102aa565b600085815260208120601f198616915b8281101561034457888601518255948401946001909101908401610325565b50858210156103625787850151600019600388901b60f8161c191681555b5050505050600190811b01905550565b610d75806103816000396000f3fe60806040526004361061012a5760003560e01c80638da5cb5b116100ab578063d96a094a1161006f578063d96a094a1461030d578063dd62ed3e14610320578063e30d4ca514610366578063e4849b3214610379578063e757223014610399578063f2fde38b146103b957600080fd5b80638da5cb5b1461028457806395d89b41146102ac578063a10954fe146102c1578063a9059cbb146102d7578063c2bd8f9b146102f757600080fd5b80634985746f116100f25780634985746f146101e557806370a08231146101fb578063715018a614610231578063790e1344146102485780638b7cc6291461026857600080fd5b806306fdde031461012f578063095ea7b31461015a57806318160ddd1461018a57806323b872dd146101a9578063313ce567146101c9575b600080fd5b34801561013b57600080fd5b506101446103d9565b6040516101519190610b51565b60405180910390f35b34801561016657600080fd5b5061017a610175366004610bbc565b61046b565b6040519015158152602001610151565b34801561019657600080fd5b506002545b604051908152602001610151565b3480156101b557600080fd5b5061017a6101c4366004610be6565b610485565b3480156101d557600080fd5b5060405160128152602001610151565b3480156101f157600080fd5b5061019b60075481565b34801561020757600080fd5b5061019b610216366004610c22565b6001600160a01b031660009081526020819052604090205490565b34801561023d57600080fd5b506102466104a9565b005b34801561025457600080fd5b50610246610263366004610c44565b6104bd565b34801561027457600080fd5b5061019b670de0b6b3a764000081565b34801561029057600080fd5b506005546040516001600160a01b039091168152602001610151565b3480156102b857600080fd5b506101446104ca565b3480156102cd57600080fd5b5061019b60065481565b3480156102e357600080fd5b5061017a6102f2366004610bbc565b6104d9565b34801561030357600080fd5b5061019b60085481565b61024661031b366004610c44565b6104e7565b34801561032c57600080fd5b5061019b61033b366004610c5d565b6001600160a01b03918216600090815260016020908152604080832093909416825291909152205490565b610246610374366004610c90565b610567565b34801561038557600080fd5b50610246610394366004610c44565b61067d565b3480156103a557600080fd5b5061019b6103b4366004610c44565b61072b565b3480156103c557600080fd5b506102466103d4366004610c22565b61073f565b6060600380546103e890610cb2565b80601f016020809104026020016040519081016040528092919081815260200182805461041490610cb2565b80156104615780601f1061043657610100808354040283529160200191610461565b820191906000526020600020905b81548152906001019060200180831161044457829003601f168201915b5050505050905090565b60003361047981858561077d565b60019150505b92915050565b60003361049385828561078a565b61049e858585610808565b506001949350505050565b6104b1610867565b6104bb6000610894565b565b6104c5610867565b600855565b6060600480546103e890610cb2565b600033610479818585610808565b60006104f28261072b565b9050803410156105415760405162461bcd60e51b8152602060048201526015602482015274125b9cdd59999a58da595b9d08115512081cd95b9d605a1b60448201526064015b60405180910390fd5b34600660008282546105539190610d02565b90915550610563905033836108e6565b5050565b6008546007546105779190610d02565b4210156105ba5760405162461bcd60e51b8152602060048201526011602482015270109d5e4819195b185e481b9bdd081b595d607a1b6044820152606401610538565b60006105c58361072b565b90508181111561060b5760405162461bcd60e51b815260206004820152601160248201527014db1a5c1c1859d948195e18d959591959607a1b6044820152606401610538565b803410156106535760405162461bcd60e51b8152602060048201526015602482015274125b9cdd59999a58da595b9d08115512081cd95b9d605a1b6044820152606401610538565b34600660008282546106659190610d02565b90915550504260075561067833846108e6565b505050565b60006106888261072b565b90508060065410156106dc5760405162461bcd60e51b815260206004820152601c60248201527f496e73756666696369656e7420726573657276652062616c616e6365000000006044820152606401610538565b80600660008282546106ee9190610d15565b909155506106fe9050338361091c565b604051339082156108fc029083906000818181858888f19350505050158015610678573d6000803e3d6000fd5b600061047f670de0b6b3a764000083610d28565b610747610867565b6001600160a01b03811661077157604051631e4fbdf760e01b815260006004820152602401610538565b61077a81610894565b50565b6106788383836001610952565b6001600160a01b03838116600090815260016020908152604080832093861683529290522054600019811461080257818110156107f357604051637dc7a0d960e11b81526001600160a01b03841660048201526024810182905260448101839052606401610538565b61080284848484036000610952565b50505050565b6001600160a01b03831661083257604051634b637e8f60e11b815260006004820152602401610538565b6001600160a01b03821661085c5760405163ec442f0560e01b815260006004820152602401610538565b610678838383610a27565b6005546001600160a01b031633146104bb5760405163118cdaa760e01b8152336004820152602401610538565b600580546001600160a01b038381166001600160a01b0319831681179093556040519116919082907f8be0079c531659141344cd1fd0a4f28419497f9722a3daafe3b4186f6b6457e090600090a35050565b6001600160a01b0382166109105760405163ec442f0560e01b815260006004820152602401610538565b61056360008383610a27565b6001600160a01b03821661094657604051634b637e8f60e11b815260006004820152602401610538565b61056382600083610a27565b6001600160a01b03841661097c5760405163e602df0560e01b815260006004820152602401610538565b6001600160a01b0383166109a657604051634a1406b160e11b815260006004820152602401610538565b6001600160a01b038085166000908152600160209081526040808320938716835292905220829055801561080257826001600160a01b0316846001600160a01b03167f8c5be1e5ebec7d5bd14f71427d1e84f3dd0314c0f7b2291e5b200ac8c7c3b92584604051610a1991815260200190565b60405180910390a350505050565b6001600160a01b038316610a52578060026000828254610a479190610d02565b90915550610ac49050565b6001600160a01b03831660009081526020819052604090205481811015610aa55760405163391434e360e21b81526001600160a01b03851660048201526024810182905260448101839052606401610538565b6001600160a01b03841660009081526020819052604090209082900390555b6001600160a01b038216610ae057600280548290039055610aff565b6001600160a01b03821660009081526020819052604090208054820190555b816001600160a01b0316836001600160a01b03167fddf252ad1be2c89b69c2b068fc378daa952ba7f163c4a11628f55a4df523b3ef83604051610b4491815260200190565b60405180910390a3505050565b60006020808352835180602085015260005b81811015610b7f57858101830151858201604001528201610b63565b506000604082860101526040601f19601f8301168501019250505092915050565b80356001600160a01b0381168114610bb757600080fd5b919050565b60008060408385031215610bcf57600080fd5b610bd883610ba0565b946020939093013593505050565b600080600060608486031215610bfb57600080fd5b610c0484610ba0565b9250610c1260208501610ba0565b9150604084013590509250925092565b600060208284031215610c3457600080fd5b610c3d82610ba0565b9392505050565b600060208284031215610c5657600080fd5b5035919050565b60008060408385031215610c7057600080fd5b610c7983610ba0565b9150610c8760208401610ba0565b90509250929050565b60008060408385031215610ca357600080fd5b50508035926020909101359150565b600181811c90821680610cc657607f821691505b602082108103610ce657634e487b7160e01b600052602260045260246000fd5b50919050565b634e487b7160e01b600052601160045260246000fd5b8082018082111561047f5761047f610cec565b8181038181111561047f5761047f610cec565b808202811582820484141761047f5761047f610cec56fea264697066735822122048f7b685b03b63ddcc3bd84a405b2d8f54732fe3bfb0c7918e2be58e8f15a82564736f6c63430008190033","linkReferences":{}},"methodIdentifiers":{"SLOPE()":"8b7cc629","allowance(address,address)":"dd62ed3e","approve(address,uint256)":"095ea7b3","balanceOf(address)":"70a08231","buy(uint256)":"d96a094a","buyDelay()":"c2bd8f9b","buyWithProtection(uint256,uint256)":"e30d4ca5","decimals()":"313ce567","getPrice(uint256)":"e7572230","lastBuyTimestamp()":"4985746f","name()":"06fdde03","owner()":"8da5cb5b","renounceOwnership()":"715018a6","reserveBalance()":"a10954fe","sell(uint256)":"e4849b32","setBuyDelay(uint256)":"790e1344","symbol()":"95d89b41","totalSupply()":"18160ddd","transfer(address,uint256)":"a9059cbb","transferFrom(address,address,uint256)":"23b872dd","transferOwnership(address)":"f2fde38b"},"id":0}